:100000000C9434000C9451000C9451000C94510049
:100010000C9451000C9451000C9451000C9451001C
:100020000C9451000C9451000C9451000C9451000C
:100030000C9451000C9451000C9451000C945100FC
:100040000C9451000C9451000C9449030C945100F1
:100050000C9451000C9451000C9451000C945100DC
:100060000C9451000C94510011241FBECFEFD8E026
:10007000DEBFCDBF11E0A0E0B1E0E2E2F7E002C0F8
:1000800005900D92A433B107D9F712E0A4E3B1E0D3
:1000900001C01D92A434B107E1F70E9453000C94F3
:1000A0008F030C940000CF93DF9360E875E280E04B
:1000B00090E00E94EE00C0E2DEE40E94B002892BD4
:1000C000C1F180E091E00E949F010E94A402A0E0A3
:1000D000B0E0BC01CD010E9404028EE091E00E94DC
:1000E0009F0180E191E00E949F010E94B002A0E088
:1000F000B0E0BC01CD010E9404028EE091E00E94BC
:100100009F0181E291E00E949F010E94AA02A0E06B
:10011000B0E0BC01CD010E9404028EE091E00E949B
:100120009F010E94B6020E9429018DE291E00E9487
:100130009F01CE010197F1F7C0CF8AEF90E0909335
:100140003902809338021092340110923D021092CD
:100150003C0210923F0210923E0220E004C0EC5C90
:10016000FE4F12862F5F8091380290913902E22F64
:10017000F0E0E817F90798F3E5E3F1E0119281E088
:10018000ED33F807D9F7108210923B0210923A0231
:1001900010924002109241021092420210924302C9
:1001A0000895E1ECF0E0808188608083E2ECF0E08B
:1001B0008081866080830895E1ECF0E08081806139
:1001C0008083E2ECF0E08081866080830895E1EC3A
:1001D000F0E080818068808378940895EF92FF92A8
:1001E0000F931F939B01AC011092C50060E271EA6E
:1001F00087E090E00E946D03215030404040504025
:100200002093C4001092C00001EC10E0F8011082AD
:1002100082ECE82EF12CF70110820E949D00F8017B
:10022000808188608083F701808186608083F80107
:10023000808180618083F701808186608083F801FE
:1002400080818068808378941F910F91FF90EF9058
:1002500008958093C6008091C00085FFFCCF08956B
:10026000982F92959F708F709A3018F0292F295CE3
:1002700002C0292F205D8A3018F0982F995C02C0A7
:10028000982F905D80E38093C6008091C00085FF29
:10029000FCCF88E78093C6008091C00085FFFCCF2B
:1002A0002093C6008091C00085FFFCCF9093C600CC
:1002B0008091C00085FFFCCF0895DF93CF93CDB729
:1002C000DEB728970FB6F894DEBF0FBECDBF982FCC
:1002D000FE0131969E01275F3F4F892F8170805D1F
:1002E00081939695E217F307C1F780E38093C600E8
:1002F0008091C00085FFFCCF82E68093C60080918C
:10030000C00085FFFCCF88E09E012F5F3F4F982FF4
:100310009150F901E90FF11D80818093C600809111
:10032000C00085FFFCCF892F992389F728960FB647
:10033000F894DEBF0FBECDBFCF91DF910895AC0121
:1003400020E007C0E093C6008091C00085FFFCCF8D
:100350002F5FFA01E20FF11DE081EE2399F7089576
:10036000BF92CF92DF92EF92FF920F931F936B0198
:100370007C01611571058105910531F410923501FB
:1003800081E080933D0123C0BB240B2D10E00C5C69
:100390001E4FC701B6012AE030E040E050E00E9465
:1003A0006D03F8016183C701B6012AE030E040E047
:1003B00050E00E946D03C901DA016C017D01B39424
:1003C000C114D104E104F10401F7B0923D011F9181
:1003D0000F91FF90EF90DF90CF90BF900895909194
:1003E0003D010FC0292F2150E22FF0E0EC5CFE4FC1
:1003F0008181805D8093C6008091C000922F85FF2F
:10040000FBCF992379F708959B01AC0197FF0EC0AC
:100410008DE28093C6008091C00085FFFCCF50958F
:100420004095309521953F4F4F4F5F4FCA01B9011D
:100430000E94B0010E94EF010895FF920F931F9355
:100440008B019C01F42E97FF0EC08DE28093C600B5
:100450008091C00085FFFCCF3095209510950195C7
:100460001F4F2F4F3F4FC901B8010E94B0014F2DC0
:1004700050E080913D01481B510920E030E090E3BD
:1004800008C09093C6008091C00085FFFCCF2F5F0D
:100490003F4F24173507ACF30E94EF011F910F91D6
:1004A000FF900895EF92FF920F931F93CF93DF93E6
:1004B0007C018C01C1E0D0E00FC0F8016081718146
:1004C000882777FD8095982F44E00E941D0280E3E5
:1004D00091E00E949F0121960E5F1F4FF7018081DE
:1004E00091818C179D074CF7DF91CF911F910F9150
:1004F000FF90EF900895DF93CF930F92CDB7DEB7C3
:1005000019828091C00084FF05C08091C600898354
:1005100081E008C08091C00083FF07C08091C600C1
:10052000898382E08093340105C08091C60089836D
:100530001092340189810F90CF91DF910895FC01D1
:10054000EC5CFE4F8285089520913A0230913B0287
:10055000C901089520913E0230913F02C9010895DA
:1005600020913C0230913D02C9010895E0913E0284
:10057000F0913F02EC5CFE4F428580913E029091EB
:100580003F02019690933F0280933E0220913E02EB
:1005900030913F0280913802909139022817390733
:1005A00020F010923F0210923E0280913C02909106
:1005B0003D02892B49F080913C0290913D020197C8
:1005C00090933D0280933C02842F08951092340151
:1005D00020E030E006C0F901EC5CFE4F12862F5F90
:1005E0003F4F80913802909139022817390798F3CC
:1005F00010923F0210923E0210923B0210923A0279
:1006000010923D0210923C020895209140023091D8
:1006100041024091420250914302B901CA0108953A
:10062000DF93CF930F92CDB7DEB70E947B02898311
:1006300080913401882349F5E0913A02F0913B0220
:100640008981EC5CFE4F828780913A0290913B0257
:10065000019690933B0280933A0280913C029091E4
:100660003D02019690933D0280933C0220913A0214
:1006700030913B0280913802909139022817390756
:1006800020F010923B0210923A020F90CF91DF912E
:1006900008951F920F920FB60F9211242F933F933C
:1006A0004F935F936F937F938F939F93AF93BF937A
:1006B000EF93FF930E941003FF91EF91BF91AF91D1
:1006C0009F918F917F916F915F914F913F912F916A
:1006D0000F900FBE0F901F901895A1E21A2EAA1B23
:1006E000BB1BFD010DC0AA1FBB1FEE1FFF1FA217E2
:1006F000B307E407F50720F0A21BB30BE40BF50BDF
:10070000661F771F881F991F1A9469F76095709567
:10071000809590959B01AC01BD01CF010895F8949F
:02072000FFCF09
:1007220042756666657220496E6465783A002000FB
:10073200417661696C61626C652042797465733AD5
:10074200005265616420496E6465783A000D0A00C2
:040752002020000063
:00000001FF
