:100000000C9434000C9451000C9451000C94510049
:100010000C9451000C9451000C9451000C9451001C
:100020000C9451000C9451000C9451000C9451000C
:100030000C9451000C9451000C9451000C945100FC
:100040000C9451000C9451000C9428030C94510012
:100050000C9451000C9451000C9451000C945100DC
:100060000C9451000C94510011241FBECFEFD8E026
:10007000DEBFCDBF11E0A0E0B1E0E0EEF6E002C0EF
:1000800005900D92A430B107D9F712E0A4E0B1E0D9
:1000900001C01D92A431B107E1F70E9453000C94F6
:1000A0006E030C940000CF93DF9360E875E280E06C
:1000B00090E00E94BA00C0E2DEE40E947C02892B3C
:1000C00021F00E9482020E94F500CE010197F1F713
:1000D000F4CF8AEF90E09093090280930802109287
:1000E000040110920D0210920C0210920F02109255
:1000F0000E0220E004C0EC5FFE4F12862F5F80915D
:10010000080290910902E22FF0E0E817F90798F34E
:10011000E5E0F1E0119281E0ED30F807D9F71082C7
:1001200010920B0210920A02109210021092110209
:1001300010921202109213020895E1ECF0E0808117
:1001400088608083E2ECF0E080818660808308959F
:10015000E1ECF0E0808180618083E2ECF0E080817E
:10016000866080830895E1ECF0E080818068808380
:1001700078940895EF92FF920F931F939B01AC0127
:100180001092C50060E271EA87E090E00E944C03A3
:1001900021503040404050402093C4001092C00095
:1001A00001EC10E0F801108282ECE82EF12CF7014E
:1001B00010820E946900F801808188608083F701C5
:1001C000808186608083F801808180618083F7016F
:1001D000808186608083F801808180688083789444
:1001E0001F910F91FF90EF9008958093C60080912A
:1001F000C00085FFFCCF0895982F92959F708F7057
:100200009A3018F0292F295C02C0292F205D8A30EE
:1002100018F0982F995C02C0982F905D80E380932E
:10022000C6008091C00085FFFCCF88E78093C600A0
:100230008091C00085FFFCCF2093C6008091C00054
:1002400085FFFCCF9093C6008091C00085FFFCCF56
:100250000895DF93CF93CDB7DEB728970FB6F89404
:10026000DEBF0FBECDBF982FFE0131969E01275FE6
:100270003F4F892F8170805D81939695E217F30738
:10028000C1F780E38093C6008091C00085FFFCCF5A
:1002900082E68093C6008091C00085FFFCCF88E095
:1002A0009E012F5F3F4F982F9150F901E90FF11DEB
:1002B00080818093C6008091C00085FFFCCF892F8C
:1002C000992389F728960FB6F894DEBF0FBECDBFED
:1002D000CF91DF910895AC0120E007C0E093C60004
:1002E0008091C00085FFFCCF2F5FFA01E20FF11D66
:1002F000E081EE2399F70895BF92CF92DF92EF92BB
:10030000FF920F931F936B017C01611571058105AD
:10031000910531F41092050181E080930D0123C015
:10032000BB240B2D10E00C5F1E4FC701B6012AE065
:1003300030E040E050E00E944C03F8016183C701C7
:10034000B6012AE030E040E050E00E944C03C901D1
:10035000DA016C017D01B394C114D104E104F1040C
:1003600001F7B0920D011F910F91FF90EF90DF9078
:10037000CF90BF90089590910D010FC0292F21506B
:10038000E22FF0E0EC5FFE4F8181805D8093C6003C
:100390008091C000922F85FFFBCF992379F70895B4
:1003A0009B01AC0197FF0EC08DE28093C600809147
:1003B000C00085FFFCCF50954095309521953F4F6B
:1003C0004F4F5F4FCA01B9010E947C010E94BB01DF
:1003D0000895FF920F931F938B019C01F42E97FFBA
:1003E0000EC08DE28093C6008091C00085FFFCCFD7
:1003F00030952095109501951F4F2F4F3F4FC90104
:10040000B8010E947C014F2D50E080910D01481BE6
:10041000510920E030E090E308C09093C60080913D
:10042000C00085FFFCCF2F5F3F4F24173507ACF38B
:100430000E94BB011F910F91FF900895EF92FF92D0
:100440000F931F93CF93DF937C018C01C1E0D0E029
:100450000FC0F80160817181882777FD8095982F02
:1004600044E00E94E90180E091E00E946B01219646
:100470000E5F1F4FF701808191818C179D074CF70C
:10048000DF91CF911F910F91FF90EF900895DF932F
:10049000CF930F92CDB7DEB719828091C00084FF51
:1004A00005C08091C600898381E008C08091C000AA
:1004B00083FF07C08091C600898382E08093040196
:1004C00005C08091C60089831092040189810F9034
:1004D000CF91DF910895FC01EC5FFE4F8285089576
:1004E00020910A0230910B02C901089520910E0259
:1004F00030910F02C901089520910C0230910D0234
:10050000C9010895E0910E02F0910F02EC5FFE4FD9
:10051000428580910E0290910F02019690930F02F6
:1005200080930E0220910E0230910F0280910802FA
:10053000909109022817390720F010920F021092AB
:100540000E0280910C0290910D02892B49F080914E
:100550000C0290910D02019790930D0280930C0272
:10056000842F08951092040120E030E006C0F901C4
:10057000EC5FFE4F12862F5F3F4F809108029091F3
:1005800009022817390798F310920F0210920E02F1
:1005900010920B0210920A0210920D0210920C029D
:1005A0000895209110023091110240911202509151
:1005B0001302B901CA010895DF93CF930F92CDB70B
:1005C000DEB70E9447028983809104018823E1F508
:1005D000E0910A02F0910B028981EC5FFE4F828765
:1005E00080910A0290910B02019690930B028093E6
:1005F0000A0280910C0290910D02019690930D02D7
:1006000080930C0220910C0230910D02809108021F
:10061000909109028217930740F48091080290910B
:10062000090290930D0280930C0220910A023091EE
:100630000B0280910802909109022817390720F0D7
:1006400010920B0210920A020F90CF91DF91089541
:100650001F920F920FB60F9211242F933F934F9337
:100660005F936F937F938F939F93AF93BF93EF931A
:10067000FF930E94DC02FF91EF91BF91AF919F9198
:100680008F917F916F915F914F913F912F910F903B
:100690000FBE0F901F901895A1E21A2EAA1BBB1B2C
:1006A000FD010DC0AA1FBB1FEE1FFF1FA217B3073E
:1006B000E407F50720F0A21BB30BE40BF50B661F54
:1006C000771F881F991F1A9469F760957095809518
:1006D00090959B01AC01BD01CF010895F894FFCF27
:0406E00020200000D6
:00000001FF
